{
  "_format": "hh-sol-artifact-1",
  "contractName": "HD721",
  "sourceName": "contracts/HD721.sol",
  "abi": [
    {
      "inputs": [],
      "stateMutability": "nonpayable",
      "type": "constructor"
    },
    {
      "anonymous": false,
      "inputs": [
        {
          "indexed": true,
          "internalType": "address",
          "name": "owner",
          "type": "address"
        },
        {
          "indexed": true,
          "internalType": "address",
          "name": "approved",
          "type": "address"
        },
        {
          "indexed": true,
          "internalType": "uint256",
          "name": "tokenId",
          "type": "uint256"
        }
      ],
      "name": "Approval",
      "type": "event"
    },
    {
      "anonymous": false,
      "inputs": [
        {
          "indexed": true,
          "internalType": "address",
          "name": "owner",
          "type": "address"
        },
        {
          "indexed": true,
          "internalType": "address",
          "name": "operator",
          "type": "address"
        },
        {
          "indexed": false,
          "internalType": "bool",
          "name": "approved",
          "type": "bool"
        }
      ],
      "name": "ApprovalForAll",
      "type": "event"
    },
    {
      "anonymous": false,
      "inputs": [
        {
          "indexed": true,
          "internalType": "address",
          "name": "previousOwner",
          "type": "address"
        },
        {
          "indexed": true,
          "internalType": "address",
          "name": "newOwner",
          "type": "address"
        }
      ],
      "name": "OwnershipTransferred",
      "type": "event"
    },
    {
      "anonymous": false,
      "inputs": [
        {
          "indexed": false,
          "internalType": "address",
          "name": "account",
          "type": "address"
        }
      ],
      "name": "Paused",
      "type": "event"
    },
    {
      "anonymous": false,
      "inputs": [
        {
          "indexed": true,
          "internalType": "address",
          "name": "from",
          "type": "address"
        },
        {
          "indexed": true,
          "internalType": "address",
          "name": "to",
          "type": "address"
        },
        {
          "indexed": true,
          "internalType": "uint256",
          "name": "tokenId",
          "type": "uint256"
        }
      ],
      "name": "Transfer",
      "type": "event"
    },
    {
      "anonymous": false,
      "inputs": [
        {
          "indexed": false,
          "internalType": "address",
          "name": "account",
          "type": "address"
        }
      ],
      "name": "Unpaused",
      "type": "event"
    },
    {
      "anonymous": false,
      "inputs": [
        {
          "indexed": true,
          "internalType": "address",
          "name": "buyer",
          "type": "address"
        },
        {
          "indexed": false,
          "internalType": "uint256",
          "name": "id",
          "type": "uint256"
        },
        {
          "indexed": false,
          "internalType": "string",
          "name": "uri",
          "type": "string"
        }
      ],
      "name": "mintEvent",
      "type": "event"
    },
    {
      "anonymous": false,
      "inputs": [
        {
          "indexed": true,
          "internalType": "address",
          "name": "contractAddr",
          "type": "address"
        },
        {
          "indexed": true,
          "internalType": "address",
          "name": "sender",
          "type": "address"
        },
        {
          "indexed": false,
          "internalType": "uint256",
          "name": "id",
          "type": "uint256"
        }
      ],
      "name": "remintEvent",
      "type": "event"
    },
    {
      "inputs": [
        {
          "internalType": "address",
          "name": "to",
          "type": "address"
        },
        {
          "internalType": "uint256",
          "name": "tokenId",
          "type": "uint256"
        }
      ],
      "name": "approve",
      "outputs": [],
      "stateMutability": "nonpayable",
      "type": "function"
    },
    {
      "inputs": [
        {
          "internalType": "address",
          "name": "owner",
          "type": "address"
        }
      ],
      "name": "balanceOf",
      "outputs": [
        {
          "internalType": "uint256",
          "name": "",
          "type": "uint256"
        }
      ],
      "stateMutability": "view",
      "type": "function"
    },
    {
      "inputs": [
        {
          "internalType": "uint256",
          "name": "tokenId",
          "type": "uint256"
        }
      ],
      "name": "burn",
      "outputs": [],
      "stateMutability": "nonpayable",
      "type": "function"
    },
    {
      "inputs": [],
      "name": "burnWallet",
      "outputs": [
        {
          "internalType": "address",
          "name": "",
          "type": "address"
        }
      ],
      "stateMutability": "view",
      "type": "function"
    },
    {
      "inputs": [
        {
          "internalType": "uint256",
          "name": "tokenId",
          "type": "uint256"
        }
      ],
      "name": "getApproved",
      "outputs": [
        {
          "internalType": "address",
          "name": "",
          "type": "address"
        }
      ],
      "stateMutability": "view",
      "type": "function"
    },
    {
      "inputs": [
        {
          "internalType": "address",
          "name": "owner",
          "type": "address"
        },
        {
          "internalType": "address",
          "name": "operator",
          "type": "address"
        }
      ],
      "name": "isApprovedForAll",
      "outputs": [
        {
          "internalType": "bool",
          "name": "",
          "type": "bool"
        }
      ],
      "stateMutability": "view",
      "type": "function"
    },
    {
      "inputs": [],
      "name": "name",
      "outputs": [
        {
          "internalType": "string",
          "name": "",
          "type": "string"
        }
      ],
      "stateMutability": "view",
      "type": "function"
    },
    {
      "inputs": [],
      "name": "offsetId",
      "outputs": [
        {
          "internalType": "uint256",
          "name": "",
          "type": "uint256"
        }
      ],
      "stateMutability": "view",
      "type": "function"
    },
    {
      "inputs": [],
      "name": "owner",
      "outputs": [
        {
          "internalType": "address",
          "name": "",
          "type": "address"
        }
      ],
      "stateMutability": "view",
      "type": "function"
    },
    {
      "inputs": [
        {
          "internalType": "uint256",
          "name": "tokenId",
          "type": "uint256"
        }
      ],
      "name": "ownerOf",
      "outputs": [
        {
          "internalType": "address",
          "name": "",
          "type": "address"
        }
      ],
      "stateMutability": "view",
      "type": "function"
    },
    {
      "inputs": [],
      "name": "pause",
      "outputs": [],
      "stateMutability": "nonpayable",
      "type": "function"
    },
    {
      "inputs": [],
      "name": "paused",
      "outputs": [
        {
          "internalType": "bool",
          "name": "",
          "type": "bool"
        }
      ],
      "stateMutability": "view",
      "type": "function"
    },
    {
      "inputs": [
        {
          "internalType": "address",
          "name": "_contractAddr",
          "type": "address"
        },
        {
          "internalType": "address",
          "name": "_sender",
          "type": "address"
        },
        {
          "internalType": "uint256",
          "name": "_tokenId",
          "type": "uint256"
        }
      ],
      "name": "remint",
      "outputs": [],
      "stateMutability": "nonpayable",
      "type": "function"
    },
    {
      "inputs": [],
      "name": "renounceOwnership",
      "outputs": [],
      "stateMutability": "nonpayable",
      "type": "function"
    },
    {
      "inputs": [
        {
          "internalType": "address",
          "name": "to",
          "type": "address"
        },
        {
          "internalType": "string",
          "name": "uri",
          "type": "string"
        }
      ],
      "name": "safeMint",
      "outputs": [],
      "stateMutability": "nonpayable",
      "type": "function"
    },
    {
      "inputs": [
        {
          "internalType": "address",
          "name": "from",
          "type": "address"
        },
        {
          "internalType": "address",
          "name": "to",
          "type": "address"
        },
        {
          "internalType": "uint256",
          "name": "tokenId",
          "type": "uint256"
        }
      ],
      "name": "safeTransferFrom",
      "outputs": [],
      "stateMutability": "nonpayable",
      "type": "function"
    },
    {
      "inputs": [
        {
          "internalType": "address",
          "name": "from",
          "type": "address"
        },
        {
          "internalType": "address",
          "name": "to",
          "type": "address"
        },
        {
          "internalType": "uint256",
          "name": "tokenId",
          "type": "uint256"
        },
        {
          "internalType": "bytes",
          "name": "_data",
          "type": "bytes"
        }
      ],
      "name": "safeTransferFrom",
      "outputs": [],
      "stateMutability": "nonpayable",
      "type": "function"
    },
    {
      "inputs": [
        {
          "internalType": "address",
          "name": "operator",
          "type": "address"
        },
        {
          "internalType": "bool",
          "name": "approved",
          "type": "bool"
        }
      ],
      "name": "setApprovalForAll",
      "outputs": [],
      "stateMutability": "nonpayable",
      "type": "function"
    },
    {
      "inputs": [
        {
          "internalType": "uint256",
          "name": "_offsetId",
          "type": "uint256"
        }
      ],
      "name": "setOffsetId",
      "outputs": [],
      "stateMutability": "nonpayable",
      "type": "function"
    },
    {
      "inputs": [
        {
          "internalType": "bytes4",
          "name": "interfaceId",
          "type": "bytes4"
        }
      ],
      "name": "supportsInterface",
      "outputs": [
        {
          "internalType": "bool",
          "name": "",
          "type": "bool"
        }
      ],
      "stateMutability": "view",
      "type": "function"
    },
    {
      "inputs": [],
      "name": "symbol",
      "outputs": [
        {
          "internalType": "string",
          "name": "",
          "type": "string"
        }
      ],
      "stateMutability": "view",
      "type": "function"
    },
    {
      "inputs": [
        {
          "internalType": "uint256",
          "name": "tokenId",
          "type": "uint256"
        }
      ],
      "name": "tokenURI",
      "outputs": [
        {
          "internalType": "string",
          "name": "",
          "type": "string"
        }
      ],
      "stateMutability": "view",
      "type": "function"
    },
    {
      "inputs": [
        {
          "internalType": "address",
          "name": "from",
          "type": "address"
        },
        {
          "internalType": "address",
          "name": "to",
          "type": "address"
        },
        {
          "internalType": "uint256",
          "name": "tokenId",
          "type": "uint256"
        }
      ],
      "name": "transferFrom",
      "outputs": [],
      "stateMutability": "nonpayable",
      "type": "function"
    },
    {
      "inputs": [
        {
          "internalType": "address",
          "name": "newOwner",
          "type": "address"
        }
      ],
      "name": "transferOwnership",
      "outputs": [],
      "stateMutability": "nonpayable",
      "type": "function"
    },
    {
      "inputs": [],
      "name": "unpause",
      "outputs": [],
      "stateMutability": "nonpayable",
      "type": "function"
    }
  ],
  "bytecode": "0x6080604052600980546001600160a01b03191661dead1790553480156200002557600080fd5b50604051806040016040528060068152602001652422102232bb60d11b815250604051806040016040528060068152602001652422102222ab60d11b81525081600090805190602001906200007c9291906200010a565b508051620000929060019060208401906200010a565b50506007805460ff1916905550620000aa33620000b0565b620001ed565b600780546001600160a01b03838116610100818102610100600160a81b031985161790945560405193909204169182907f8be0079c531659141344cd1fd0a4f28419497f9722a3daafe3b4186f6b6457e090600090a35050565b8280546200011890620001b0565b90600052602060002090601f0160209004810192826200013c576000855562000187565b82601f106200015757805160ff191683800117855562000187565b8280016001018555821562000187579182015b82811115620001875782518255916020019190600101906200016a565b506200019592915062000199565b5090565b5b808211156200019557600081556001016200019a565b600281046001821680620001c557607f821691505b60208210811415620001e757634e487b7160e01b600052602260045260246000fd5b50919050565b611e2180620001fd6000396000f3fe608060405234801561001057600080fd5b50600436106101335760003560e01c806301ffc9a714610138578063062287491461016057806306fdde0314610180578063081812fc14610195578063095ea7b3146101a857806323b872dd146101bd5780633f4ba83a146101d057806342842e0e146101d857806342966c68146101eb5780635c975abb146101fe5780636352211e1461020957806370a082311461021c578063715018a61461023d5780638456cb5914610245578063851686bd1461024d5780638da5cb5b1461026057806395d89b4114610268578063a22cb46514610270578063b88d4fde14610283578063ba52166114610296578063c87b56dd146102a9578063d204c45e146102bc578063e985e9c5146102cf578063f1386cb8146102e2578063f2fde38b146102eb575b600080fd5b61014b610146366004611a70565b6102fe565b60405190151581526020015b60405180910390f35b600954610173906001600160a01b031681565b6040516101579190611b1b565b610188610352565b6040516101579190611b6c565b6101736101a3366004611aa8565b6103e4565b6101bb6101b6366004611a47565b610471565b005b6101bb6101cb3660046118fc565b610582565b6101bb6105b4565b6101bb6101e63660046118fc565b6105ed565b6101bb6101f9366004611aa8565b610608565b60075460ff1661014b565b610173610217366004611aa8565b610682565b61022f61022a3660046118b0565b6106f9565b604051908152602001610157565b6101bb610780565b6101bb6107b9565b6101bb61025b3660046118fc565b6107f0565b6101736108b2565b6101886108c6565b6101bb61027e3660046119af565b6108d5565b6101bb610291366004611937565b6108e4565b6101bb6102a4366004611aa8565b61091c565b6101886102b7366004611aa8565b610950565b6101bb6102ca3660046119e9565b61095b565b61014b6102dd3660046118ca565b6109df565b61022f600a5481565b6101bb6102f93660046118b0565b610a0d565b60006001600160e01b031982166380ac58cd60e01b148061032f57506001600160e01b03198216635b5e139f60e01b145b8061034a57506301ffc9a760e01b6001600160e01b03198316145b90505b919050565b60606000805461036190611d09565b80601f016020809104026020016040519081016040528092919081815260200182805461038d90611d09565b80156103da5780601f106103af576101008083540402835291602001916103da565b820191906000526020600020905b8154815290600101906020018083116103bd57829003601f168201915b5050505050905090565b60006103ef82610aaa565b6104555760405162461bcd60e51b815260206004820152602c60248201527f4552433732313a20617070726f76656420717565727920666f72206e6f6e657860448201526b34b9ba32b73a103a37b5b2b760a11b60648201526084015b60405180910390fd5b506000908152600460205260409020546001600160a01b031690565b600061047c82610682565b9050806001600160a01b0316836001600160a01b031614156104ea5760405162461bcd60e51b815260206004820152602160248201527f4552433732313a20617070726f76616c20746f2063757272656e74206f776e656044820152603960f91b606482015260840161044c565b336001600160a01b0382161480610506575061050681336102dd565b6105735760405162461bcd60e51b815260206004820152603860248201527f4552433732313a20617070726f76652063616c6c6572206973206e6f74206f776044820152771b995c881b9bdc88185c1c1c9bdd995908199bdc88185b1b60421b606482015260840161044c565b61057d8383610ac7565b505050565b61058d335b82610b35565b6105a95760405162461bcd60e51b815260040161044c90611c30565b61057d838383610bff565b336105bd6108b2565b6001600160a01b0316146105e35760405162461bcd60e51b815260040161044c90611bfb565b6105eb610d94565b565b61057d838383604051806020016040528060008152506108e4565b61061133610587565b6106765760405162461bcd60e51b815260206004820152603060248201527f4552433732314275726e61626c653a2063616c6c6572206973206e6f74206f7760448201526f1b995c881b9bdc88185c1c1c9bdd995960821b606482015260840161044c565b61067f81610e21565b50565b6000818152600260205260408120546001600160a01b03168061034a5760405162461bcd60e51b815260206004820152602960248201527f4552433732313a206f776e657220717565727920666f72206e6f6e657869737460448201526832b73a103a37b5b2b760b91b606482015260840161044c565b60006001600160a01b0382166107645760405162461bcd60e51b815260206004820152602a60248201527f4552433732313a2062616c616e636520717565727920666f7220746865207a65604482015269726f206164647265737360b01b606482015260840161044c565b506001600160a01b031660009081526003602052604090205490565b336107896108b2565b6001600160a01b0316146107af5760405162461bcd60e51b815260040161044c90611bfb565b6105eb6000610e2a565b336107c26108b2565b6001600160a01b0316146107e85760405162461bcd60e51b815260040161044c90611bfb565b6105eb610e84565b6009546040516323b872dd60e01b81526001600160a01b03848116600483015291821660248201526044810183905284918216906323b872dd90606401600060405180830381600087803b15801561084757600080fd5b505af115801561085b573d6000803e3d6000fd5b50505050826001600160a01b0316846001600160a01b03167f89db4441c5090cf5d5da408c095c3a568267615610109d3dbdcc60892136a6c6846040516108a491815260200190565b60405180910390a350505050565b60075461010090046001600160a01b031690565b60606001805461036190611d09565b6108e0338383610edc565b5050565b6108ee3383610b35565b61090a5760405162461bcd60e51b815260040161044c90611c30565b61091684848484610fa7565b50505050565b336109256108b2565b6001600160a01b03161461094b5760405162461bcd60e51b815260040161044c90611bfb565b600a55565b606061034a82610fda565b6000600a5461096960085490565b6109739190611c9a565b9050610983600880546001019055565b61098d838261113d565b6109978183611157565b826001600160a01b03167f76d561a4b8dadcdd199f5cc6472c5f442eb49b33a530632e4c5c91cdb4c8d2b682846040516109d2929190611c81565b60405180910390a2505050565b6001600160a01b03918216600090815260056020908152604080832093909416825291909152205460ff1690565b33610a166108b2565b6001600160a01b031614610a3c5760405162461bcd60e51b815260040161044c90611bfb565b6001600160a01b038116610aa15760405162461bcd60e51b815260206004820152602660248201527f4f776e61626c653a206e6577206f776e657220697320746865207a65726f206160448201526564647265737360d01b606482015260840161044c565b61067f81610e2a565b6000908152600260205260409020546001600160a01b0316151590565b600081815260046020526040902080546001600160a01b0319166001600160a01b0384169081179091558190610afc82610682565b6001600160a01b03167f8c5be1e5ebec7d5bd14f71427d1e84f3dd0314c0f7b2291e5b200ac8c7c3b92560405160405180910390a45050565b6000610b4082610aaa565b610ba15760405162461bcd60e51b815260206004820152602c60248201527f4552433732313a206f70657261746f7220717565727920666f72206e6f6e657860448201526b34b9ba32b73a103a37b5b2b760a11b606482015260840161044c565b6000610bac83610682565b9050806001600160a01b0316846001600160a01b03161480610be75750836001600160a01b0316610bdc846103e4565b6001600160a01b0316145b80610bf75750610bf781856109df565b949350505050565b826001600160a01b0316610c1282610682565b6001600160a01b031614610c765760405162461bcd60e51b815260206004820152602560248201527f4552433732313a207472616e736665722066726f6d20696e636f72726563742060448201526437bbb732b960d91b606482015260840161044c565b6001600160a01b038216610cd85760405162461bcd60e51b8152602060048201526024808201527f4552433732313a207472616e7366657220746f20746865207a65726f206164646044820152637265737360e01b606482015260840161044c565b610ce38383836111e2565b610cee600082610ac7565b6001600160a01b0383166000908152600360205260408120805460019290610d17908490611cc6565b90915550506001600160a01b0382166000908152600360205260408120805460019290610d45908490611c9a565b909155505060008181526002602052604080822080546001600160a01b0319166001600160a01b038681169182179092559151849391871691600080516020611dcc83398151915291a461057d565b60075460ff16610ddd5760405162461bcd60e51b815260206004820152601460248201527314185d5cd8589b194e881b9bdd081c185d5cd95960621b604482015260640161044c565b6007805460ff191690557f5db9ee0a495bf2e6ff9c91a7834c1ba4fdd244a5e8aa4e537bd38aeae4b073aa335b604051610e179190611b1b565b60405180910390a1565b61067f8161120a565b600780546001600160a01b03838116610100818102610100600160a81b031985161790945560405193909204169182907f8be0079c531659141344cd1fd0a4f28419497f9722a3daafe3b4186f6b6457e090600090a35050565b60075460ff1615610ea75760405162461bcd60e51b815260040161044c90611bd1565b6007805460ff191660011790557f62e78cea01bee320cd4e420270b5ea74000d11b0c9f74754ebdbfc544b05a258610e0a3390565b816001600160a01b0316836001600160a01b03161415610f3a5760405162461bcd60e51b815260206004820152601960248201527822a9219b99189d1030b8383937bb32903a379031b0b63632b960391b604482015260640161044c565b6001600160a01b03838116600081815260056020908152604080832094871680845294825291829020805460ff191686151590811790915591519182527f17307eab39ab6107e8899845ad3d59bd9653f200f220920489ca2b5937696c31910160405180910390a3505050565b610fb2848484610bff565b610fbe8484848461124a565b6109165760405162461bcd60e51b815260040161044c90611b7f565b6060610fe582610aaa565b61104b5760405162461bcd60e51b815260206004820152603160248201527f45524337323155524953746f726167653a2055524920717565727920666f72206044820152703737b732bc34b9ba32b73a103a37b5b2b760791b606482015260840161044c565b6000828152600660205260408120805461106490611d09565b80601f016020809104026020016040519081016040528092919081815260200182805461109090611d09565b80156110dd5780601f106110b2576101008083540402835291602001916110dd565b820191906000526020600020905b8154815290600101906020018083116110c057829003601f168201915b5050505050905060006110ee611357565b90508051600014156111025750905061034d565b81511561113457808260405160200161111c929190611aec565b6040516020818303038152906040529250505061034d565b610bf784611378565b6108e0828260405180602001604052806000815250611443565b61116082610aaa565b6111c35760405162461bcd60e51b815260206004820152602e60248201527f45524337323155524953746f726167653a2055524920736574206f66206e6f6e60448201526d32bc34b9ba32b73a103a37b5b2b760911b606482015260840161044c565b6000828152600660209081526040909120825161057d92840190611753565b60075460ff16156112055760405162461bcd60e51b815260040161044c90611bd1565b61057d565b61121381611476565b6000818152600660205260409020805461122c90611d09565b15905061067f57600081815260066020526040812061067f916117d7565b60006001600160a01b0384163b1561134c57604051630a85bd0160e11b81526001600160a01b0385169063150b7a029061128e903390899088908890600401611b2f565b602060405180830381600087803b1580156112a857600080fd5b505af19250505080156112d8575060408051601f3d908101601f191682019092526112d591810190611a8c565b60015b611332573d808015611306576040519150601f19603f3d011682016040523d82523d6000602084013e61130b565b606091505b50805161132a5760405162461bcd60e51b815260040161044c90611b7f565b805181602001fd5b6001600160e01b031916630a85bd0160e11b149050610bf7565b506001949350505050565b604080518082019091526007815266697066733a2f2f60c81b602082015290565b606061138382610aaa565b6113e75760405162461bcd60e51b815260206004820152602f60248201527f4552433732314d657461646174613a2055524920717565727920666f72206e6f60448201526e3732bc34b9ba32b73a103a37b5b2b760891b606482015260840161044c565b60006113f1611357565b90506000815111611411576040518060200160405280600081525061143c565b8061141b8461150c565b60405160200161142c929190611aec565b6040516020818303038152906040525b9392505050565b61144d8383611626565b61145a600084848461124a565b61057d5760405162461bcd60e51b815260040161044c90611b7f565b600061148182610682565b905061148f816000846111e2565b61149a600083610ac7565b6001600160a01b03811660009081526003602052604081208054600192906114c3908490611cc6565b909155505060008281526002602052604080822080546001600160a01b0319169055518391906001600160a01b03841690600080516020611dcc833981519152908390a46108e0565b60608161153157506040805180820190915260018152600360fc1b602082015261034d565b8160005b811561155b578061154581611d44565b91506115549050600a83611cb2565b9150611535565b6000816001600160401b0381111561158357634e487b7160e01b600052604160045260246000fd5b6040519080825280601f01601f1916602001820160405280156115ad576020820181803683370190505b5090505b8415610bf7576115c2600183611cc6565b91506115cf600a86611d5f565b6115da906030611c9a565b60f81b8183815181106115fd57634e487b7160e01b600052603260045260246000fd5b60200101906001600160f81b031916908160001a90535061161f600a86611cb2565b94506115b1565b6001600160a01b03821661167c5760405162461bcd60e51b815260206004820181905260248201527f4552433732313a206d696e7420746f20746865207a65726f2061646472657373604482015260640161044c565b61168581610aaa565b156116d15760405162461bcd60e51b815260206004820152601c60248201527b115490cdcc8c4e881d1bdad95b88185b1c9958591e481b5a5b9d195960221b604482015260640161044c565b6116dd600083836111e2565b6001600160a01b0382166000908152600360205260408120805460019290611706908490611c9a565b909155505060008181526002602052604080822080546001600160a01b0319166001600160a01b0386169081179091559051839290600080516020611dcc833981519152908290a46108e0565b82805461175f90611d09565b90600052602060002090601f01602090048101928261178157600085556117c7565b82601f1061179a57805160ff19168380011785556117c7565b828001600101855582156117c7579182015b828111156117c75782518255916020019190600101906117ac565b506117d392915061180f565b5090565b5080546117e390611d09565b6000825580601f106117f5575061067f565b601f01602090049060005260206000209081019061067f91905b5b808211156117d35760008155600101611810565b60006001600160401b038084111561183e5761183e611d9f565b604051601f8501601f19908116603f0116810190828211818310171561186657611866611d9f565b8160405280935085815286868601111561187f57600080fd5b858560208301376000602087830101525050509392505050565b80356001600160a01b038116811461034d57600080fd5b6000602082840312156118c1578081fd5b61143c82611899565b600080604083850312156118dc578081fd5b6118e583611899565b91506118f360208401611899565b90509250929050565b600080600060608486031215611910578081fd5b61191984611899565b925061192760208501611899565b9150604084013590509250925092565b6000806000806080858703121561194c578081fd5b61195585611899565b935061196360208601611899565b92506040850135915060608501356001600160401b03811115611984578182fd5b8501601f81018713611994578182fd5b6119a387823560208401611824565b91505092959194509250565b600080604083850312156119c1578182fd5b6119ca83611899565b9150602083013580151581146119de578182fd5b809150509250929050565b600080604083850312156119fb578182fd5b611a0483611899565b915060208301356001600160401b03811115611a1e578182fd5b8301601f81018513611a2e578182fd5b611a3d85823560208401611824565b9150509250929050565b60008060408385031215611a59578182fd5b611a6283611899565b946020939093013593505050565b600060208284031215611a81578081fd5b813561143c81611db5565b600060208284031215611a9d578081fd5b815161143c81611db5565b600060208284031215611ab9578081fd5b5035919050565b60008151808452611ad8816020860160208601611cdd565b601f01601f19169290920160200192915050565b60008351611afe818460208801611cdd565b835190830190611b12818360208801611cdd565b01949350505050565b6001600160a01b0391909116815260200190565b6001600160a01b0385811682528416602082015260408101839052608060608201819052600090611b6290830184611ac0565b9695505050505050565b60006020825261143c6020830184611ac0565b60208082526032908201527f4552433732313a207472616e7366657220746f206e6f6e20455243373231526560408201527131b2b4bb32b91034b6b83632b6b2b73a32b960711b606082015260800190565b60208082526010908201526f14185d5cd8589b194e881c185d5cd95960821b604082015260600190565b6020808252818101527f4f776e61626c653a2063616c6c6572206973206e6f7420746865206f776e6572604082015260600190565b60208082526031908201527f4552433732313a207472616e736665722063616c6c6572206973206e6f74206f6040820152701ddb995c881b9bdc88185c1c1c9bdd9959607a1b606082015260800190565b600083825260406020830152610bf76040830184611ac0565b60008219821115611cad57611cad611d73565b500190565b600082611cc157611cc1611d89565b500490565b600082821015611cd857611cd8611d73565b500390565b60005b83811015611cf8578181015183820152602001611ce0565b838111156109165750506000910152565b600281046001821680611d1d57607f821691505b60208210811415611d3e57634e487b7160e01b600052602260045260246000fd5b50919050565b6000600019821415611d5857611d58611d73565b5060010190565b600082611d6e57611d6e611d89565b500690565b634e487b7160e01b600052601160045260246000fd5b634e487b7160e01b600052601260045260246000fd5b634e487b7160e01b600052604160045260246000fd5b6001600160e01b03198116811461067f57600080fdfeddf252ad1be2c89b69c2b068fc378daa952ba7f163c4a11628f55a4df523b3efa264697066735822122039c1ec798cf79870283902e1adc812d66075dc18d7c7a9d4d9bb12b124e0b7ce64736f6c63430008020033",
  "linkReferences": {},
  "deployedLinkReferences": {}
}