{
  "_format": "hh-sol-artifact-1",
  "contractName": "HD721",
  "sourceName": "contracts/HD721.sol",
  "abi": [
    {
      "inputs": [],
      "stateMutability": "nonpayable",
      "type": "constructor"
    },
    {
      "anonymous": false,
      "inputs": [
        {
          "indexed": true,
          "internalType": "address",
          "name": "owner",
          "type": "address"
        },
        {
          "indexed": true,
          "internalType": "address",
          "name": "approved",
          "type": "address"
        },
        {
          "indexed": true,
          "internalType": "uint256",
          "name": "tokenId",
          "type": "uint256"
        }
      ],
      "name": "Approval",
      "type": "event"
    },
    {
      "anonymous": false,
      "inputs": [
        {
          "indexed": true,
          "internalType": "address",
          "name": "owner",
          "type": "address"
        },
        {
          "indexed": true,
          "internalType": "address",
          "name": "operator",
          "type": "address"
        },
        {
          "indexed": false,
          "internalType": "bool",
          "name": "approved",
          "type": "bool"
        }
      ],
      "name": "ApprovalForAll",
      "type": "event"
    },
    {
      "anonymous": false,
      "inputs": [
        {
          "indexed": true,
          "internalType": "address",
          "name": "previousOwner",
          "type": "address"
        },
        {
          "indexed": true,
          "internalType": "address",
          "name": "newOwner",
          "type": "address"
        }
      ],
      "name": "OwnershipTransferred",
      "type": "event"
    },
    {
      "anonymous": false,
      "inputs": [
        {
          "indexed": false,
          "internalType": "address",
          "name": "account",
          "type": "address"
        }
      ],
      "name": "Paused",
      "type": "event"
    },
    {
      "anonymous": false,
      "inputs": [
        {
          "indexed": true,
          "internalType": "address",
          "name": "from",
          "type": "address"
        },
        {
          "indexed": true,
          "internalType": "address",
          "name": "to",
          "type": "address"
        },
        {
          "indexed": true,
          "internalType": "uint256",
          "name": "tokenId",
          "type": "uint256"
        }
      ],
      "name": "Transfer",
      "type": "event"
    },
    {
      "anonymous": false,
      "inputs": [
        {
          "indexed": false,
          "internalType": "address",
          "name": "account",
          "type": "address"
        }
      ],
      "name": "Unpaused",
      "type": "event"
    },
    {
      "anonymous": false,
      "inputs": [
        {
          "indexed": true,
          "internalType": "address",
          "name": "buyer",
          "type": "address"
        },
        {
          "indexed": false,
          "internalType": "uint256",
          "name": "id",
          "type": "uint256"
        },
        {
          "indexed": false,
          "internalType": "string",
          "name": "uri",
          "type": "string"
        }
      ],
      "name": "mintEvent",
      "type": "event"
    },
    {
      "anonymous": false,
      "inputs": [
        {
          "indexed": true,
          "internalType": "address",
          "name": "_contractAddr",
          "type": "address"
        },
        {
          "indexed": true,
          "internalType": "address",
          "name": "_sender",
          "type": "address"
        },
        {
          "indexed": false,
          "internalType": "uint256",
          "name": "_id",
          "type": "uint256"
        }
      ],
      "name": "remintEvent",
      "type": "event"
    },
    {
      "inputs": [
        {
          "internalType": "address",
          "name": "to",
          "type": "address"
        },
        {
          "internalType": "uint256",
          "name": "tokenId",
          "type": "uint256"
        }
      ],
      "name": "approve",
      "outputs": [],
      "stateMutability": "nonpayable",
      "type": "function"
    },
    {
      "inputs": [
        {
          "internalType": "address",
          "name": "owner",
          "type": "address"
        }
      ],
      "name": "balanceOf",
      "outputs": [
        {
          "internalType": "uint256",
          "name": "",
          "type": "uint256"
        }
      ],
      "stateMutability": "view",
      "type": "function"
    },
    {
      "inputs": [
        {
          "internalType": "uint256",
          "name": "tokenId",
          "type": "uint256"
        }
      ],
      "name": "burn",
      "outputs": [],
      "stateMutability": "nonpayable",
      "type": "function"
    },
    {
      "inputs": [],
      "name": "burnWallet",
      "outputs": [
        {
          "internalType": "address",
          "name": "",
          "type": "address"
        }
      ],
      "stateMutability": "view",
      "type": "function"
    },
    {
      "inputs": [
        {
          "internalType": "uint256",
          "name": "tokenId",
          "type": "uint256"
        }
      ],
      "name": "getApproved",
      "outputs": [
        {
          "internalType": "address",
          "name": "",
          "type": "address"
        }
      ],
      "stateMutability": "view",
      "type": "function"
    },
    {
      "inputs": [
        {
          "internalType": "address",
          "name": "owner",
          "type": "address"
        },
        {
          "internalType": "address",
          "name": "operator",
          "type": "address"
        }
      ],
      "name": "isApprovedForAll",
      "outputs": [
        {
          "internalType": "bool",
          "name": "",
          "type": "bool"
        }
      ],
      "stateMutability": "view",
      "type": "function"
    },
    {
      "inputs": [],
      "name": "name",
      "outputs": [
        {
          "internalType": "string",
          "name": "",
          "type": "string"
        }
      ],
      "stateMutability": "view",
      "type": "function"
    },
    {
      "inputs": [],
      "name": "owner",
      "outputs": [
        {
          "internalType": "address",
          "name": "",
          "type": "address"
        }
      ],
      "stateMutability": "view",
      "type": "function"
    },
    {
      "inputs": [
        {
          "internalType": "uint256",
          "name": "tokenId",
          "type": "uint256"
        }
      ],
      "name": "ownerOf",
      "outputs": [
        {
          "internalType": "address",
          "name": "",
          "type": "address"
        }
      ],
      "stateMutability": "view",
      "type": "function"
    },
    {
      "inputs": [],
      "name": "pause",
      "outputs": [],
      "stateMutability": "nonpayable",
      "type": "function"
    },
    {
      "inputs": [],
      "name": "paused",
      "outputs": [
        {
          "internalType": "bool",
          "name": "",
          "type": "bool"
        }
      ],
      "stateMutability": "view",
      "type": "function"
    },
    {
      "inputs": [
        {
          "internalType": "address",
          "name": "_contractAddr",
          "type": "address"
        },
        {
          "internalType": "address",
          "name": "_sender",
          "type": "address"
        },
        {
          "internalType": "uint256",
          "name": "_tokenId",
          "type": "uint256"
        }
      ],
      "name": "remint",
      "outputs": [],
      "stateMutability": "nonpayable",
      "type": "function"
    },
    {
      "inputs": [],
      "name": "renounceOwnership",
      "outputs": [],
      "stateMutability": "nonpayable",
      "type": "function"
    },
    {
      "inputs": [
        {
          "internalType": "address",
          "name": "to",
          "type": "address"
        },
        {
          "internalType": "string",
          "name": "uri",
          "type": "string"
        }
      ],
      "name": "safeMint",
      "outputs": [],
      "stateMutability": "nonpayable",
      "type": "function"
    },
    {
      "inputs": [
        {
          "internalType": "address",
          "name": "from",
          "type": "address"
        },
        {
          "internalType": "address",
          "name": "to",
          "type": "address"
        },
        {
          "internalType": "uint256",
          "name": "tokenId",
          "type": "uint256"
        }
      ],
      "name": "safeTransferFrom",
      "outputs": [],
      "stateMutability": "nonpayable",
      "type": "function"
    },
    {
      "inputs": [
        {
          "internalType": "address",
          "name": "from",
          "type": "address"
        },
        {
          "internalType": "address",
          "name": "to",
          "type": "address"
        },
        {
          "internalType": "uint256",
          "name": "tokenId",
          "type": "uint256"
        },
        {
          "internalType": "bytes",
          "name": "_data",
          "type": "bytes"
        }
      ],
      "name": "safeTransferFrom",
      "outputs": [],
      "stateMutability": "nonpayable",
      "type": "function"
    },
    {
      "inputs": [
        {
          "internalType": "address",
          "name": "operator",
          "type": "address"
        },
        {
          "internalType": "bool",
          "name": "approved",
          "type": "bool"
        }
      ],
      "name": "setApprovalForAll",
      "outputs": [],
      "stateMutability": "nonpayable",
      "type": "function"
    },
    {
      "inputs": [
        {
          "internalType": "bytes4",
          "name": "interfaceId",
          "type": "bytes4"
        }
      ],
      "name": "supportsInterface",
      "outputs": [
        {
          "internalType": "bool",
          "name": "",
          "type": "bool"
        }
      ],
      "stateMutability": "view",
      "type": "function"
    },
    {
      "inputs": [],
      "name": "symbol",
      "outputs": [
        {
          "internalType": "string",
          "name": "",
          "type": "string"
        }
      ],
      "stateMutability": "view",
      "type": "function"
    },
    {
      "inputs": [
        {
          "internalType": "uint256",
          "name": "tokenId",
          "type": "uint256"
        }
      ],
      "name": "tokenURI",
      "outputs": [
        {
          "internalType": "string",
          "name": "",
          "type": "string"
        }
      ],
      "stateMutability": "view",
      "type": "function"
    },
    {
      "inputs": [
        {
          "internalType": "address",
          "name": "from",
          "type": "address"
        },
        {
          "internalType": "address",
          "name": "to",
          "type": "address"
        },
        {
          "internalType": "uint256",
          "name": "tokenId",
          "type": "uint256"
        }
      ],
      "name": "transferFrom",
      "outputs": [],
      "stateMutability": "nonpayable",
      "type": "function"
    },
    {
      "inputs": [
        {
          "internalType": "address",
          "name": "newOwner",
          "type": "address"
        }
      ],
      "name": "transferOwnership",
      "outputs": [],
      "stateMutability": "nonpayable",
      "type": "function"
    },
    {
      "inputs": [],
      "name": "unpause",
      "outputs": [],
      "stateMutability": "nonpayable",
      "type": "function"
    }
  ],
  "bytecode": "0x6080604052600980546001600160a01b03191661dead1790553480156200002557600080fd5b50604051806040016040528060068152602001652422102232bb60d11b815250604051806040016040528060068152602001652422102222ab60d11b81525081600090805190602001906200007c9291906200010a565b508051620000929060019060208401906200010a565b50506007805460ff1916905550620000aa33620000b0565b620001ed565b600780546001600160a01b03838116610100818102610100600160a81b031985161790945560405193909204169182907f8be0079c531659141344cd1fd0a4f28419497f9722a3daafe3b4186f6b6457e090600090a35050565b8280546200011890620001b0565b90600052602060002090601f0160209004810192826200013c576000855562000187565b82601f106200015757805160ff191683800117855562000187565b8280016001018555821562000187579182015b82811115620001875782518255916020019190600101906200016a565b506200019592915062000199565b5090565b5b808211156200019557600081556001016200019a565b600281046001821680620001c557607f821691505b60208210811415620001e757634e487b7160e01b600052602260045260246000fd5b50919050565b611dae80620001fd6000396000f3fe608060405234801561001057600080fd5b506004361061011d5760003560e01c806301ffc9a714610122578063062287491461014a57806306fdde031461016a578063081812fc1461017f578063095ea7b31461019257806323b872dd146101a75780633f4ba83a146101ba57806342842e0e146101c257806342966c68146101d55780635c975abb146101e85780636352211e146101f357806370a0823114610206578063715018a6146102275780638456cb591461022f578063851686bd146102375780638da5cb5b1461024a57806395d89b4114610252578063a22cb4651461025a578063b88d4fde1461026d578063c87b56dd14610280578063d204c45e14610293578063e985e9c5146102a6578063f2fde38b146102b9575b600080fd5b6101356101303660046119fd565b6102cc565b60405190151581526020015b60405180910390f35b60095461015d906001600160a01b031681565b6040516101419190611aa8565b610172610320565b6040516101419190611af9565b61015d61018d366004611a35565b6103b2565b6101a56101a03660046119d4565b61043f565b005b6101a56101b5366004611889565b610550565b6101a5610582565b6101a56101d0366004611889565b6105bb565b6101a56101e3366004611a35565b6105d6565b60075460ff16610135565b61015d610201366004611a35565b610650565b61021961021436600461183d565b6106c7565b604051908152602001610141565b6101a561074e565b6101a5610787565b6101a5610245366004611889565b6107be565b61015d610880565b610172610894565b6101a561026836600461193c565b6108a3565b6101a561027b3660046118c4565b6108b2565b61017261028e366004611a35565b6108ea565b6101a56102a1366004611976565b6108f5565b6101356102b4366004611857565b61096c565b6101a56102c736600461183d565b61099a565b60006001600160e01b031982166380ac58cd60e01b14806102fd57506001600160e01b03198216635b5e139f60e01b145b8061031857506301ffc9a760e01b6001600160e01b03198316145b90505b919050565b60606000805461032f90611c96565b80601f016020809104026020016040519081016040528092919081815260200182805461035b90611c96565b80156103a85780601f1061037d576101008083540402835291602001916103a8565b820191906000526020600020905b81548152906001019060200180831161038b57829003601f168201915b5050505050905090565b60006103bd82610a37565b6104235760405162461bcd60e51b815260206004820152602c60248201527f4552433732313a20617070726f76656420717565727920666f72206e6f6e657860448201526b34b9ba32b73a103a37b5b2b760a11b60648201526084015b60405180910390fd5b506000908152600460205260409020546001600160a01b031690565b600061044a82610650565b9050806001600160a01b0316836001600160a01b031614156104b85760405162461bcd60e51b815260206004820152602160248201527f4552433732313a20617070726f76616c20746f2063757272656e74206f776e656044820152603960f91b606482015260840161041a565b336001600160a01b03821614806104d457506104d481336102b4565b6105415760405162461bcd60e51b815260206004820152603860248201527f4552433732313a20617070726f76652063616c6c6572206973206e6f74206f776044820152771b995c881b9bdc88185c1c1c9bdd995908199bdc88185b1b60421b606482015260840161041a565b61054b8383610a54565b505050565b61055b335b82610ac2565b6105775760405162461bcd60e51b815260040161041a90611bbd565b61054b838383610b8c565b3361058b610880565b6001600160a01b0316146105b15760405162461bcd60e51b815260040161041a90611b88565b6105b9610d21565b565b61054b838383604051806020016040528060008152506108b2565b6105df33610555565b6106445760405162461bcd60e51b815260206004820152603060248201527f4552433732314275726e61626c653a2063616c6c6572206973206e6f74206f7760448201526f1b995c881b9bdc88185c1c1c9bdd995960821b606482015260840161041a565b61064d81610dae565b50565b6000818152600260205260408120546001600160a01b0316806103185760405162461bcd60e51b815260206004820152602960248201527f4552433732313a206f776e657220717565727920666f72206e6f6e657869737460448201526832b73a103a37b5b2b760b91b606482015260840161041a565b60006001600160a01b0382166107325760405162461bcd60e51b815260206004820152602a60248201527f4552433732313a2062616c616e636520717565727920666f7220746865207a65604482015269726f206164647265737360b01b606482015260840161041a565b506001600160a01b031660009081526003602052604090205490565b33610757610880565b6001600160a01b03161461077d5760405162461bcd60e51b815260040161041a90611b88565b6105b96000610db7565b33610790610880565b6001600160a01b0316146107b65760405162461bcd60e51b815260040161041a90611b88565b6105b9610e11565b6009546040516323b872dd60e01b81526001600160a01b03848116600483015291821660248201526044810183905284918216906323b872dd90606401600060405180830381600087803b15801561081557600080fd5b505af1158015610829573d6000803e3d6000fd5b50505050826001600160a01b0316846001600160a01b03167f89db4441c5090cf5d5da408c095c3a568267615610109d3dbdcc60892136a6c68460405161087291815260200190565b60405180910390a350505050565b60075461010090046001600160a01b031690565b60606001805461032f90611c96565b6108ae338383610e69565b5050565b6108bc3383610ac2565b6108d85760405162461bcd60e51b815260040161041a90611bbd565b6108e484848484610f34565b50505050565b606061031882610f67565b600061090060085490565b9050610910600880546001019055565b61091a83826110ca565b61092481836110e4565b826001600160a01b03167f76d561a4b8dadcdd199f5cc6472c5f442eb49b33a530632e4c5c91cdb4c8d2b6828460405161095f929190611c0e565b60405180910390a2505050565b6001600160a01b03918216600090815260056020908152604080832093909416825291909152205460ff1690565b336109a3610880565b6001600160a01b0316146109c95760405162461bcd60e51b815260040161041a90611b88565b6001600160a01b038116610a2e5760405162461bcd60e51b815260206004820152602660248201527f4f776e61626c653a206e6577206f776e657220697320746865207a65726f206160448201526564647265737360d01b606482015260840161041a565b61064d81610db7565b6000908152600260205260409020546001600160a01b0316151590565b600081815260046020526040902080546001600160a01b0319166001600160a01b0384169081179091558190610a8982610650565b6001600160a01b03167f8c5be1e5ebec7d5bd14f71427d1e84f3dd0314c0f7b2291e5b200ac8c7c3b92560405160405180910390a45050565b6000610acd82610a37565b610b2e5760405162461bcd60e51b815260206004820152602c60248201527f4552433732313a206f70657261746f7220717565727920666f72206e6f6e657860448201526b34b9ba32b73a103a37b5b2b760a11b606482015260840161041a565b6000610b3983610650565b9050806001600160a01b0316846001600160a01b03161480610b745750836001600160a01b0316610b69846103b2565b6001600160a01b0316145b80610b845750610b84818561096c565b949350505050565b826001600160a01b0316610b9f82610650565b6001600160a01b031614610c035760405162461bcd60e51b815260206004820152602560248201527f4552433732313a207472616e736665722066726f6d20696e636f72726563742060448201526437bbb732b960d91b606482015260840161041a565b6001600160a01b038216610c655760405162461bcd60e51b8152602060048201526024808201527f4552433732313a207472616e7366657220746f20746865207a65726f206164646044820152637265737360e01b606482015260840161041a565b610c7083838361116f565b610c7b600082610a54565b6001600160a01b0383166000908152600360205260408120805460019290610ca4908490611c53565b90915550506001600160a01b0382166000908152600360205260408120805460019290610cd2908490611c27565b909155505060008181526002602052604080822080546001600160a01b0319166001600160a01b038681169182179092559151849391871691600080516020611d5983398151915291a461054b565b60075460ff16610d6a5760405162461bcd60e51b815260206004820152601460248201527314185d5cd8589b194e881b9bdd081c185d5cd95960621b604482015260640161041a565b6007805460ff191690557f5db9ee0a495bf2e6ff9c91a7834c1ba4fdd244a5e8aa4e537bd38aeae4b073aa335b604051610da49190611aa8565b60405180910390a1565b61064d81611197565b600780546001600160a01b03838116610100818102610100600160a81b031985161790945560405193909204169182907f8be0079c531659141344cd1fd0a4f28419497f9722a3daafe3b4186f6b6457e090600090a35050565b60075460ff1615610e345760405162461bcd60e51b815260040161041a90611b5e565b6007805460ff191660011790557f62e78cea01bee320cd4e420270b5ea74000d11b0c9f74754ebdbfc544b05a258610d973390565b816001600160a01b0316836001600160a01b03161415610ec75760405162461bcd60e51b815260206004820152601960248201527822a9219b99189d1030b8383937bb32903a379031b0b63632b960391b604482015260640161041a565b6001600160a01b03838116600081815260056020908152604080832094871680845294825291829020805460ff191686151590811790915591519182527f17307eab39ab6107e8899845ad3d59bd9653f200f220920489ca2b5937696c31910160405180910390a3505050565b610f3f848484610b8c565b610f4b848484846111d7565b6108e45760405162461bcd60e51b815260040161041a90611b0c565b6060610f7282610a37565b610fd85760405162461bcd60e51b815260206004820152603160248201527f45524337323155524953746f726167653a2055524920717565727920666f72206044820152703737b732bc34b9ba32b73a103a37b5b2b760791b606482015260840161041a565b60008281526006602052604081208054610ff190611c96565b80601f016020809104026020016040519081016040528092919081815260200182805461101d90611c96565b801561106a5780601f1061103f5761010080835404028352916020019161106a565b820191906000526020600020905b81548152906001019060200180831161104d57829003601f168201915b50505050509050600061107b6112e4565b905080516000141561108f5750905061031b565b8151156110c15780826040516020016110a9929190611a79565b6040516020818303038152906040529250505061031b565b610b8484611305565b6108ae8282604051806020016040528060008152506113d0565b6110ed82610a37565b6111505760405162461bcd60e51b815260206004820152602e60248201527f45524337323155524953746f726167653a2055524920736574206f66206e6f6e60448201526d32bc34b9ba32b73a103a37b5b2b760911b606482015260840161041a565b6000828152600660209081526040909120825161054b928401906116e0565b60075460ff16156111925760405162461bcd60e51b815260040161041a90611b5e565b61054b565b6111a081611403565b600081815260066020526040902080546111b990611c96565b15905061064d57600081815260066020526040812061064d91611764565b60006001600160a01b0384163b156112d957604051630a85bd0160e11b81526001600160a01b0385169063150b7a029061121b903390899088908890600401611abc565b602060405180830381600087803b15801561123557600080fd5b505af1925050508015611265575060408051601f3d908101601f1916820190925261126291810190611a19565b60015b6112bf573d808015611293576040519150601f19603f3d011682016040523d82523d6000602084013e611298565b606091505b5080516112b75760405162461bcd60e51b815260040161041a90611b0c565b805181602001fd5b6001600160e01b031916630a85bd0160e11b149050610b84565b506001949350505050565b604080518082019091526007815266697066733a2f2f60c81b602082015290565b606061131082610a37565b6113745760405162461bcd60e51b815260206004820152602f60248201527f4552433732314d657461646174613a2055524920717565727920666f72206e6f60448201526e3732bc34b9ba32b73a103a37b5b2b760891b606482015260840161041a565b600061137e6112e4565b9050600081511161139e57604051806020016040528060008152506113c9565b806113a884611499565b6040516020016113b9929190611a79565b6040516020818303038152906040525b9392505050565b6113da83836115b3565b6113e760008484846111d7565b61054b5760405162461bcd60e51b815260040161041a90611b0c565b600061140e82610650565b905061141c8160008461116f565b611427600083610a54565b6001600160a01b0381166000908152600360205260408120805460019290611450908490611c53565b909155505060008281526002602052604080822080546001600160a01b0319169055518391906001600160a01b03841690600080516020611d59833981519152908390a46108ae565b6060816114be57506040805180820190915260018152600360fc1b602082015261031b565b8160005b81156114e857806114d281611cd1565b91506114e19050600a83611c3f565b91506114c2565b6000816001600160401b0381111561151057634e487b7160e01b600052604160045260246000fd5b6040519080825280601f01601f19166020018201604052801561153a576020820181803683370190505b5090505b8415610b845761154f600183611c53565b915061155c600a86611cec565b611567906030611c27565b60f81b81838151811061158a57634e487b7160e01b600052603260045260246000fd5b60200101906001600160f81b031916908160001a9053506115ac600a86611c3f565b945061153e565b6001600160a01b0382166116095760405162461bcd60e51b815260206004820181905260248201527f4552433732313a206d696e7420746f20746865207a65726f2061646472657373604482015260640161041a565b61161281610a37565b1561165e5760405162461bcd60e51b815260206004820152601c60248201527b115490cdcc8c4e881d1bdad95b88185b1c9958591e481b5a5b9d195960221b604482015260640161041a565b61166a6000838361116f565b6001600160a01b0382166000908152600360205260408120805460019290611693908490611c27565b909155505060008181526002602052604080822080546001600160a01b0319166001600160a01b0386169081179091559051839290600080516020611d59833981519152908290a46108ae565b8280546116ec90611c96565b90600052602060002090601f01602090048101928261170e5760008555611754565b82601f1061172757805160ff1916838001178555611754565b82800160010185558215611754579182015b82811115611754578251825591602001919060010190611739565b5061176092915061179c565b5090565b50805461177090611c96565b6000825580601f10611782575061064d565b601f01602090049060005260206000209081019061064d91905b5b80821115611760576000815560010161179d565b60006001600160401b03808411156117cb576117cb611d2c565b604051601f8501601f19908116603f011681019082821181831017156117f3576117f3611d2c565b8160405280935085815286868601111561180c57600080fd5b858560208301376000602087830101525050509392505050565b80356001600160a01b038116811461031b57600080fd5b60006020828403121561184e578081fd5b6113c982611826565b60008060408385031215611869578081fd5b61187283611826565b915061188060208401611826565b90509250929050565b60008060006060848603121561189d578081fd5b6118a684611826565b92506118b460208501611826565b9150604084013590509250925092565b600080600080608085870312156118d9578081fd5b6118e285611826565b93506118f060208601611826565b92506040850135915060608501356001600160401b03811115611911578182fd5b8501601f81018713611921578182fd5b611930878235602084016117b1565b91505092959194509250565b6000806040838503121561194e578182fd5b61195783611826565b91506020830135801515811461196b578182fd5b809150509250929050565b60008060408385031215611988578182fd5b61199183611826565b915060208301356001600160401b038111156119ab578182fd5b8301601f810185136119bb578182fd5b6119ca858235602084016117b1565b9150509250929050565b600080604083850312156119e6578182fd5b6119ef83611826565b946020939093013593505050565b600060208284031215611a0e578081fd5b81356113c981611d42565b600060208284031215611a2a578081fd5b81516113c981611d42565b600060208284031215611a46578081fd5b5035919050565b60008151808452611a65816020860160208601611c6a565b601f01601f19169290920160200192915050565b60008351611a8b818460208801611c6a565b835190830190611a9f818360208801611c6a565b01949350505050565b6001600160a01b0391909116815260200190565b6001600160a01b0385811682528416602082015260408101839052608060608201819052600090611aef90830184611a4d565b9695505050505050565b6000602082526113c96020830184611a4d565b60208082526032908201527f4552433732313a207472616e7366657220746f206e6f6e20455243373231526560408201527131b2b4bb32b91034b6b83632b6b2b73a32b960711b606082015260800190565b60208082526010908201526f14185d5cd8589b194e881c185d5cd95960821b604082015260600190565b6020808252818101527f4f776e61626c653a2063616c6c6572206973206e6f7420746865206f776e6572604082015260600190565b60208082526031908201527f4552433732313a207472616e736665722063616c6c6572206973206e6f74206f6040820152701ddb995c881b9bdc88185c1c1c9bdd9959607a1b606082015260800190565b600083825260406020830152610b846040830184611a4d565b60008219821115611c3a57611c3a611d00565b500190565b600082611c4e57611c4e611d16565b500490565b600082821015611c6557611c65611d00565b500390565b60005b83811015611c85578181015183820152602001611c6d565b838111156108e45750506000910152565b600281046001821680611caa57607f821691505b60208210811415611ccb57634e487b7160e01b600052602260045260246000fd5b50919050565b6000600019821415611ce557611ce5611d00565b5060010190565b600082611cfb57611cfb611d16565b500690565b634e487b7160e01b600052601160045260246000fd5b634e487b7160e01b600052601260045260246000fd5b634e487b7160e01b600052604160045260246000fd5b6001600160e01b03198116811461064d57600080fdfeddf252ad1be2c89b69c2b068fc378daa952ba7f163c4a11628f55a4df523b3efa2646970667358221220d7410a1a077a362c1c5cde8cb75ef9a8d51522a8df37db943002276ab9cff7bf64736f6c63430008020033",
  "linkReferences": {},
  "deployedLinkReferences": {}
}