{
  "_format": "hh-sol-artifact-1",
  "contractName": "HD721",
  "sourceName": "contracts/HD721.sol",
  "abi": [
    {
      "inputs": [],
      "stateMutability": "nonpayable",
      "type": "constructor"
    },
    {
      "anonymous": false,
      "inputs": [
        {
          "indexed": true,
          "internalType": "address",
          "name": "owner",
          "type": "address"
        },
        {
          "indexed": true,
          "internalType": "address",
          "name": "approved",
          "type": "address"
        },
        {
          "indexed": true,
          "internalType": "uint256",
          "name": "tokenId",
          "type": "uint256"
        }
      ],
      "name": "Approval",
      "type": "event"
    },
    {
      "anonymous": false,
      "inputs": [
        {
          "indexed": true,
          "internalType": "address",
          "name": "owner",
          "type": "address"
        },
        {
          "indexed": true,
          "internalType": "address",
          "name": "operator",
          "type": "address"
        },
        {
          "indexed": false,
          "internalType": "bool",
          "name": "approved",
          "type": "bool"
        }
      ],
      "name": "ApprovalForAll",
      "type": "event"
    },
    {
      "anonymous": false,
      "inputs": [
        {
          "indexed": true,
          "internalType": "address",
          "name": "previousOwner",
          "type": "address"
        },
        {
          "indexed": true,
          "internalType": "address",
          "name": "newOwner",
          "type": "address"
        }
      ],
      "name": "OwnershipTransferred",
      "type": "event"
    },
    {
      "anonymous": false,
      "inputs": [
        {
          "indexed": false,
          "internalType": "address",
          "name": "account",
          "type": "address"
        }
      ],
      "name": "Paused",
      "type": "event"
    },
    {
      "anonymous": false,
      "inputs": [
        {
          "indexed": true,
          "internalType": "address",
          "name": "from",
          "type": "address"
        },
        {
          "indexed": true,
          "internalType": "address",
          "name": "to",
          "type": "address"
        },
        {
          "indexed": true,
          "internalType": "uint256",
          "name": "tokenId",
          "type": "uint256"
        }
      ],
      "name": "Transfer",
      "type": "event"
    },
    {
      "anonymous": false,
      "inputs": [
        {
          "indexed": false,
          "internalType": "address",
          "name": "account",
          "type": "address"
        }
      ],
      "name": "Unpaused",
      "type": "event"
    },
    {
      "anonymous": false,
      "inputs": [
        {
          "indexed": true,
          "internalType": "address",
          "name": "buyer",
          "type": "address"
        },
        {
          "indexed": false,
          "internalType": "uint256",
          "name": "id",
          "type": "uint256"
        },
        {
          "indexed": false,
          "internalType": "string",
          "name": "uri",
          "type": "string"
        }
      ],
      "name": "mintEvent",
      "type": "event"
    },
    {
      "inputs": [
        {
          "internalType": "address",
          "name": "to",
          "type": "address"
        },
        {
          "internalType": "uint256",
          "name": "tokenId",
          "type": "uint256"
        }
      ],
      "name": "approve",
      "outputs": [],
      "stateMutability": "nonpayable",
      "type": "function"
    },
    {
      "inputs": [
        {
          "internalType": "address",
          "name": "owner",
          "type": "address"
        }
      ],
      "name": "balanceOf",
      "outputs": [
        {
          "internalType": "uint256",
          "name": "",
          "type": "uint256"
        }
      ],
      "stateMutability": "view",
      "type": "function"
    },
    {
      "inputs": [
        {
          "internalType": "uint256",
          "name": "tokenId",
          "type": "uint256"
        }
      ],
      "name": "burn",
      "outputs": [],
      "stateMutability": "nonpayable",
      "type": "function"
    },
    {
      "inputs": [
        {
          "internalType": "uint256",
          "name": "tokenId",
          "type": "uint256"
        }
      ],
      "name": "getApproved",
      "outputs": [
        {
          "internalType": "address",
          "name": "",
          "type": "address"
        }
      ],
      "stateMutability": "view",
      "type": "function"
    },
    {
      "inputs": [
        {
          "internalType": "address",
          "name": "owner",
          "type": "address"
        },
        {
          "internalType": "address",
          "name": "operator",
          "type": "address"
        }
      ],
      "name": "isApprovedForAll",
      "outputs": [
        {
          "internalType": "bool",
          "name": "",
          "type": "bool"
        }
      ],
      "stateMutability": "view",
      "type": "function"
    },
    {
      "inputs": [],
      "name": "name",
      "outputs": [
        {
          "internalType": "string",
          "name": "",
          "type": "string"
        }
      ],
      "stateMutability": "view",
      "type": "function"
    },
    {
      "inputs": [],
      "name": "owner",
      "outputs": [
        {
          "internalType": "address",
          "name": "",
          "type": "address"
        }
      ],
      "stateMutability": "view",
      "type": "function"
    },
    {
      "inputs": [
        {
          "internalType": "uint256",
          "name": "tokenId",
          "type": "uint256"
        }
      ],
      "name": "ownerOf",
      "outputs": [
        {
          "internalType": "address",
          "name": "",
          "type": "address"
        }
      ],
      "stateMutability": "view",
      "type": "function"
    },
    {
      "inputs": [],
      "name": "pause",
      "outputs": [],
      "stateMutability": "nonpayable",
      "type": "function"
    },
    {
      "inputs": [],
      "name": "paused",
      "outputs": [
        {
          "internalType": "bool",
          "name": "",
          "type": "bool"
        }
      ],
      "stateMutability": "view",
      "type": "function"
    },
    {
      "inputs": [],
      "name": "renounceOwnership",
      "outputs": [],
      "stateMutability": "nonpayable",
      "type": "function"
    },
    {
      "inputs": [
        {
          "internalType": "address",
          "name": "to",
          "type": "address"
        },
        {
          "internalType": "string",
          "name": "uri",
          "type": "string"
        }
      ],
      "name": "safeMint",
      "outputs": [],
      "stateMutability": "nonpayable",
      "type": "function"
    },
    {
      "inputs": [
        {
          "internalType": "address",
          "name": "from",
          "type": "address"
        },
        {
          "internalType": "address",
          "name": "to",
          "type": "address"
        },
        {
          "internalType": "uint256",
          "name": "tokenId",
          "type": "uint256"
        }
      ],
      "name": "safeTransferFrom",
      "outputs": [],
      "stateMutability": "nonpayable",
      "type": "function"
    },
    {
      "inputs": [
        {
          "internalType": "address",
          "name": "from",
          "type": "address"
        },
        {
          "internalType": "address",
          "name": "to",
          "type": "address"
        },
        {
          "internalType": "uint256",
          "name": "tokenId",
          "type": "uint256"
        },
        {
          "internalType": "bytes",
          "name": "_data",
          "type": "bytes"
        }
      ],
      "name": "safeTransferFrom",
      "outputs": [],
      "stateMutability": "nonpayable",
      "type": "function"
    },
    {
      "inputs": [
        {
          "internalType": "address",
          "name": "operator",
          "type": "address"
        },
        {
          "internalType": "bool",
          "name": "approved",
          "type": "bool"
        }
      ],
      "name": "setApprovalForAll",
      "outputs": [],
      "stateMutability": "nonpayable",
      "type": "function"
    },
    {
      "inputs": [
        {
          "internalType": "bytes4",
          "name": "interfaceId",
          "type": "bytes4"
        }
      ],
      "name": "supportsInterface",
      "outputs": [
        {
          "internalType": "bool",
          "name": "",
          "type": "bool"
        }
      ],
      "stateMutability": "view",
      "type": "function"
    },
    {
      "inputs": [],
      "name": "symbol",
      "outputs": [
        {
          "internalType": "string",
          "name": "",
          "type": "string"
        }
      ],
      "stateMutability": "view",
      "type": "function"
    },
    {
      "inputs": [
        {
          "internalType": "uint256",
          "name": "tokenId",
          "type": "uint256"
        }
      ],
      "name": "tokenURI",
      "outputs": [
        {
          "internalType": "string",
          "name": "",
          "type": "string"
        }
      ],
      "stateMutability": "view",
      "type": "function"
    },
    {
      "inputs": [
        {
          "internalType": "address",
          "name": "from",
          "type": "address"
        },
        {
          "internalType": "address",
          "name": "to",
          "type": "address"
        },
        {
          "internalType": "uint256",
          "name": "tokenId",
          "type": "uint256"
        }
      ],
      "name": "transferFrom",
      "outputs": [],
      "stateMutability": "nonpayable",
      "type": "function"
    },
    {
      "inputs": [
        {
          "internalType": "address",
          "name": "newOwner",
          "type": "address"
        }
      ],
      "name": "transferOwnership",
      "outputs": [],
      "stateMutability": "nonpayable",
      "type": "function"
    },
    {
      "inputs": [],
      "name": "unpause",
      "outputs": [],
      "stateMutability": "nonpayable",
      "type": "function"
    }
  ],
  "bytecode": "0x60806040523480156200001157600080fd5b50604080518082018252600c81526b1219595c98511a59da5d185b60a21b602080830191825283518085019094526002845261121160f21b9084015281519192916200006091600091620000ee565b50805162000076906001906020840190620000ee565b50506007805460ff19169055506200008e3362000094565b620001d1565b600780546001600160a01b03838116610100818102610100600160a81b031985161790945560405193909204169182907f8be0079c531659141344cd1fd0a4f28419497f9722a3daafe3b4186f6b6457e090600090a35050565b828054620000fc9062000194565b90600052602060002090601f0160209004810192826200012057600085556200016b565b82601f106200013b57805160ff19168380011785556200016b565b828001600101855582156200016b579182015b828111156200016b5782518255916020019190600101906200014e565b50620001799291506200017d565b5090565b5b808211156200017957600081556001016200017e565b600281046001821680620001a957607f821691505b60208210811415620001cb57634e487b7160e01b600052602260045260246000fd5b50919050565b611cb080620001e16000396000f3fe608060405234801561001057600080fd5b50600436106101075760003560e01c806301ffc9a71461010c57806306fdde0314610134578063081812fc14610149578063095ea7b31461016957806323b872dd1461017e5780633f4ba83a1461019157806342842e0e1461019957806342966c68146101ac5780635c975abb146101bf5780636352211e146101ca57806370a08231146101dd578063715018a6146101fe5780638456cb59146102065780638da5cb5b1461020e57806395d89b4114610216578063a22cb4651461021e578063b88d4fde14610231578063c87b56dd14610244578063d204c45e14610257578063e985e9c51461026a578063f2fde38b1461027d575b600080fd5b61011f61011a3660046118ff565b610290565b60405190151581526020015b60405180910390f35b61013c6102e4565b60405161012b91906119fb565b61015c610157366004611937565b610376565b60405161012b91906119aa565b61017c6101773660046118d6565b610403565b005b61017c61018c36600461178b565b610514565b61017c610546565b61017c6101a736600461178b565b61057f565b61017c6101ba366004611937565b61059a565b60075460ff1661011f565b61015c6101d8366004611937565b610614565b6101f06101eb36600461173f565b61068b565b60405190815260200161012b565b61017c610712565b61017c61074b565b61015c610782565b61013c610796565b61017c61022c36600461183e565b6107a5565b61017c61023f3660046117c6565b6107b4565b61013c610252366004611937565b6107ec565b61017c610265366004611878565b6107f7565b61011f610278366004611759565b61086e565b61017c61028b36600461173f565b61089c565b60006001600160e01b031982166380ac58cd60e01b14806102c157506001600160e01b03198216635b5e139f60e01b145b806102dc57506301ffc9a760e01b6001600160e01b03198316145b90505b919050565b6060600080546102f390611b98565b80601f016020809104026020016040519081016040528092919081815260200182805461031f90611b98565b801561036c5780601f106103415761010080835404028352916020019161036c565b820191906000526020600020905b81548152906001019060200180831161034f57829003601f168201915b5050505050905090565b600061038182610939565b6103e75760405162461bcd60e51b815260206004820152602c60248201527f4552433732313a20617070726f76656420717565727920666f72206e6f6e657860448201526b34b9ba32b73a103a37b5b2b760a11b60648201526084015b60405180910390fd5b506000908152600460205260409020546001600160a01b031690565b600061040e82610614565b9050806001600160a01b0316836001600160a01b0316141561047c5760405162461bcd60e51b815260206004820152602160248201527f4552433732313a20617070726f76616c20746f2063757272656e74206f776e656044820152603960f91b60648201526084016103de565b336001600160a01b038216148061049857506104988133610278565b6105055760405162461bcd60e51b815260206004820152603860248201527f4552433732313a20617070726f76652063616c6c6572206973206e6f74206f776044820152771b995c881b9bdc88185c1c1c9bdd995908199bdc88185b1b60421b60648201526084016103de565b61050f8383610956565b505050565b61051f335b826109c4565b61053b5760405162461bcd60e51b81526004016103de90611abf565b61050f838383610a8e565b3361054f610782565b6001600160a01b0316146105755760405162461bcd60e51b81526004016103de90611a8a565b61057d610c23565b565b61050f838383604051806020016040528060008152506107b4565b6105a333610519565b6106085760405162461bcd60e51b815260206004820152603060248201527f4552433732314275726e61626c653a2063616c6c6572206973206e6f74206f7760448201526f1b995c881b9bdc88185c1c1c9bdd995960821b60648201526084016103de565b61061181610cb0565b50565b6000818152600260205260408120546001600160a01b0316806102dc5760405162461bcd60e51b815260206004820152602960248201527f4552433732313a206f776e657220717565727920666f72206e6f6e657869737460448201526832b73a103a37b5b2b760b91b60648201526084016103de565b60006001600160a01b0382166106f65760405162461bcd60e51b815260206004820152602a60248201527f4552433732313a2062616c616e636520717565727920666f7220746865207a65604482015269726f206164647265737360b01b60648201526084016103de565b506001600160a01b031660009081526003602052604090205490565b3361071b610782565b6001600160a01b0316146107415760405162461bcd60e51b81526004016103de90611a8a565b61057d6000610cb9565b33610754610782565b6001600160a01b03161461077a5760405162461bcd60e51b81526004016103de90611a8a565b61057d610d13565b60075461010090046001600160a01b031690565b6060600180546102f390611b98565b6107b0338383610d6b565b5050565b6107be33836109c4565b6107da5760405162461bcd60e51b81526004016103de90611abf565b6107e684848484610e36565b50505050565b60606102dc82610e69565b600061080260085490565b9050610812600880546001019055565b61081c8382610fcc565b6108268183610fe6565b826001600160a01b03167f76d561a4b8dadcdd199f5cc6472c5f442eb49b33a530632e4c5c91cdb4c8d2b68284604051610861929190611b10565b60405180910390a2505050565b6001600160a01b03918216600090815260056020908152604080832093909416825291909152205460ff1690565b336108a5610782565b6001600160a01b0316146108cb5760405162461bcd60e51b81526004016103de90611a8a565b6001600160a01b0381166109305760405162461bcd60e51b815260206004820152602660248201527f4f776e61626c653a206e6577206f776e657220697320746865207a65726f206160448201526564647265737360d01b60648201526084016103de565b61061181610cb9565b6000908152600260205260409020546001600160a01b0316151590565b600081815260046020526040902080546001600160a01b0319166001600160a01b038416908117909155819061098b82610614565b6001600160a01b03167f8c5be1e5ebec7d5bd14f71427d1e84f3dd0314c0f7b2291e5b200ac8c7c3b92560405160405180910390a45050565b60006109cf82610939565b610a305760405162461bcd60e51b815260206004820152602c60248201527f4552433732313a206f70657261746f7220717565727920666f72206e6f6e657860448201526b34b9ba32b73a103a37b5b2b760a11b60648201526084016103de565b6000610a3b83610614565b9050806001600160a01b0316846001600160a01b03161480610a765750836001600160a01b0316610a6b84610376565b6001600160a01b0316145b80610a865750610a86818561086e565b949350505050565b826001600160a01b0316610aa182610614565b6001600160a01b031614610b055760405162461bcd60e51b815260206004820152602560248201527f4552433732313a207472616e736665722066726f6d20696e636f72726563742060448201526437bbb732b960d91b60648201526084016103de565b6001600160a01b038216610b675760405162461bcd60e51b8152602060048201526024808201527f4552433732313a207472616e7366657220746f20746865207a65726f206164646044820152637265737360e01b60648201526084016103de565b610b72838383611071565b610b7d600082610956565b6001600160a01b0383166000908152600360205260408120805460019290610ba6908490611b55565b90915550506001600160a01b0382166000908152600360205260408120805460019290610bd4908490611b29565b909155505060008181526002602052604080822080546001600160a01b0319166001600160a01b038681169182179092559151849391871691600080516020611c5b83398151915291a461050f565b60075460ff16610c6c5760405162461bcd60e51b815260206004820152601460248201527314185d5cd8589b194e881b9bdd081c185d5cd95960621b60448201526064016103de565b6007805460ff191690557f5db9ee0a495bf2e6ff9c91a7834c1ba4fdd244a5e8aa4e537bd38aeae4b073aa335b604051610ca691906119aa565b60405180910390a1565b61061181611099565b600780546001600160a01b03838116610100818102610100600160a81b031985161790945560405193909204169182907f8be0079c531659141344cd1fd0a4f28419497f9722a3daafe3b4186f6b6457e090600090a35050565b60075460ff1615610d365760405162461bcd60e51b81526004016103de90611a60565b6007805460ff191660011790557f62e78cea01bee320cd4e420270b5ea74000d11b0c9f74754ebdbfc544b05a258610c993390565b816001600160a01b0316836001600160a01b03161415610dc95760405162461bcd60e51b815260206004820152601960248201527822a9219b99189d1030b8383937bb32903a379031b0b63632b960391b60448201526064016103de565b6001600160a01b03838116600081815260056020908152604080832094871680845294825291829020805460ff191686151590811790915591519182527f17307eab39ab6107e8899845ad3d59bd9653f200f220920489ca2b5937696c31910160405180910390a3505050565b610e41848484610a8e565b610e4d848484846110d9565b6107e65760405162461bcd60e51b81526004016103de90611a0e565b6060610e7482610939565b610eda5760405162461bcd60e51b815260206004820152603160248201527f45524337323155524953746f726167653a2055524920717565727920666f72206044820152703737b732bc34b9ba32b73a103a37b5b2b760791b60648201526084016103de565b60008281526006602052604081208054610ef390611b98565b80601f0160208091040260200160405190810160405280929190818152602001828054610f1f90611b98565b8015610f6c5780601f10610f4157610100808354040283529160200191610f6c565b820191906000526020600020905b815481529060010190602001808311610f4f57829003601f168201915b505050505090506000610f7d6111e6565b9050805160001415610f91575090506102df565b815115610fc3578082604051602001610fab92919061197b565b604051602081830303815290604052925050506102df565b610a8684611207565b6107b08282604051806020016040528060008152506112d2565b610fef82610939565b6110525760405162461bcd60e51b815260206004820152602e60248201527f45524337323155524953746f726167653a2055524920736574206f66206e6f6e60448201526d32bc34b9ba32b73a103a37b5b2b760911b60648201526084016103de565b6000828152600660209081526040909120825161050f928401906115e2565b60075460ff16156110945760405162461bcd60e51b81526004016103de90611a60565b61050f565b6110a281611305565b600081815260066020526040902080546110bb90611b98565b15905061061157600081815260066020526040812061061191611666565b60006001600160a01b0384163b156111db57604051630a85bd0160e11b81526001600160a01b0385169063150b7a029061111d9033908990889088906004016119be565b602060405180830381600087803b15801561113757600080fd5b505af1925050508015611167575060408051601f3d908101601f191682019092526111649181019061191b565b60015b6111c1573d808015611195576040519150601f19603f3d011682016040523d82523d6000602084013e61119a565b606091505b5080516111b95760405162461bcd60e51b81526004016103de90611a0e565b805181602001fd5b6001600160e01b031916630a85bd0160e11b149050610a86565b506001949350505050565b604080518082019091526007815266697066733a2f2f60c81b602082015290565b606061121282610939565b6112765760405162461bcd60e51b815260206004820152602f60248201527f4552433732314d657461646174613a2055524920717565727920666f72206e6f60448201526e3732bc34b9ba32b73a103a37b5b2b760891b60648201526084016103de565b60006112806111e6565b905060008151116112a057604051806020016040528060008152506112cb565b806112aa8461139b565b6040516020016112bb92919061197b565b6040516020818303038152906040525b9392505050565b6112dc83836114b5565b6112e960008484846110d9565b61050f5760405162461bcd60e51b81526004016103de90611a0e565b600061131082610614565b905061131e81600084611071565b611329600083610956565b6001600160a01b0381166000908152600360205260408120805460019290611352908490611b55565b909155505060008281526002602052604080822080546001600160a01b0319169055518391906001600160a01b03841690600080516020611c5b833981519152908390a46107b0565b6060816113c057506040805180820190915260018152600360fc1b60208201526102df565b8160005b81156113ea57806113d481611bd3565b91506113e39050600a83611b41565b91506113c4565b6000816001600160401b0381111561141257634e487b7160e01b600052604160045260246000fd5b6040519080825280601f01601f19166020018201604052801561143c576020820181803683370190505b5090505b8415610a8657611451600183611b55565b915061145e600a86611bee565b611469906030611b29565b60f81b81838151811061148c57634e487b7160e01b600052603260045260246000fd5b60200101906001600160f81b031916908160001a9053506114ae600a86611b41565b9450611440565b6001600160a01b03821661150b5760405162461bcd60e51b815260206004820181905260248201527f4552433732313a206d696e7420746f20746865207a65726f206164647265737360448201526064016103de565b61151481610939565b156115605760405162461bcd60e51b815260206004820152601c60248201527b115490cdcc8c4e881d1bdad95b88185b1c9958591e481b5a5b9d195960221b60448201526064016103de565b61156c60008383611071565b6001600160a01b0382166000908152600360205260408120805460019290611595908490611b29565b909155505060008181526002602052604080822080546001600160a01b0319166001600160a01b0386169081179091559051839290600080516020611c5b833981519152908290a46107b0565b8280546115ee90611b98565b90600052602060002090601f0160209004810192826116105760008555611656565b82601f1061162957805160ff1916838001178555611656565b82800160010185558215611656579182015b8281111561165657825182559160200191906001019061163b565b5061166292915061169e565b5090565b50805461167290611b98565b6000825580601f106116845750610611565b601f01602090049060005260206000209081019061061191905b5b80821115611662576000815560010161169f565b60006001600160401b03808411156116cd576116cd611c2e565b604051601f8501601f19908116603f011681019082821181831017156116f5576116f5611c2e565b8160405280935085815286868601111561170e57600080fd5b858560208301376000602087830101525050509392505050565b80356001600160a01b03811681146102df57600080fd5b600060208284031215611750578081fd5b6112cb82611728565b6000806040838503121561176b578081fd5b61177483611728565b915061178260208401611728565b90509250929050565b60008060006060848603121561179f578081fd5b6117a884611728565b92506117b660208501611728565b9150604084013590509250925092565b600080600080608085870312156117db578081fd5b6117e485611728565b93506117f260208601611728565b92506040850135915060608501356001600160401b03811115611813578182fd5b8501601f81018713611823578182fd5b611832878235602084016116b3565b91505092959194509250565b60008060408385031215611850578182fd5b61185983611728565b91506020830135801515811461186d578182fd5b809150509250929050565b6000806040838503121561188a578182fd5b61189383611728565b915060208301356001600160401b038111156118ad578182fd5b8301601f810185136118bd578182fd5b6118cc858235602084016116b3565b9150509250929050565b600080604083850312156118e8578182fd5b6118f183611728565b946020939093013593505050565b600060208284031215611910578081fd5b81356112cb81611c44565b60006020828403121561192c578081fd5b81516112cb81611c44565b600060208284031215611948578081fd5b5035919050565b60008151808452611967816020860160208601611b6c565b601f01601f19169290920160200192915050565b6000835161198d818460208801611b6c565b8351908301906119a1818360208801611b6c565b01949350505050565b6001600160a01b0391909116815260200190565b6001600160a01b03858116825284166020820152604081018390526080606082018190526000906119f19083018461194f565b9695505050505050565b6000602082526112cb602083018461194f565b60208082526032908201527f4552433732313a207472616e7366657220746f206e6f6e20455243373231526560408201527131b2b4bb32b91034b6b83632b6b2b73a32b960711b606082015260800190565b60208082526010908201526f14185d5cd8589b194e881c185d5cd95960821b604082015260600190565b6020808252818101527f4f776e61626c653a2063616c6c6572206973206e6f7420746865206f776e6572604082015260600190565b60208082526031908201527f4552433732313a207472616e736665722063616c6c6572206973206e6f74206f6040820152701ddb995c881b9bdc88185c1c1c9bdd9959607a1b606082015260800190565b600083825260406020830152610a86604083018461194f565b60008219821115611b3c57611b3c611c02565b500190565b600082611b5057611b50611c18565b500490565b600082821015611b6757611b67611c02565b500390565b60005b83811015611b87578181015183820152602001611b6f565b838111156107e65750506000910152565b600281046001821680611bac57607f821691505b60208210811415611bcd57634e487b7160e01b600052602260045260246000fd5b50919050565b6000600019821415611be757611be7611c02565b5060010190565b600082611bfd57611bfd611c18565b500690565b634e487b7160e01b600052601160045260246000fd5b634e487b7160e01b600052601260045260246000fd5b634e487b7160e01b600052604160045260246000fd5b6001600160e01b03198116811461061157600080fdfeddf252ad1be2c89b69c2b068fc378daa952ba7f163c4a11628f55a4df523b3efa2646970667358221220b9caad75015746e7839abaa7046905efd9df6cdcf46f24dc4a3e3cd5afb1531264736f6c63430008020033",
  "linkReferences": {},
  "deployedLinkReferences": {}
}